:020000040000FA
:100000000C94F8340C94E3350C94BC350C941535F1
:100010000C9415350C9415350C9415350C94153538
:100020000C9415350C9415350C9415350C940A3632
:100030000C9415350C9415350C9415350C94153518
:100040000C9472350C9415350C9415350C941535AB
:100050000C9415350C9415350C9415350C941535F8
:100060000C9415350C941535809484888A758CA56C
:10007000908C81808B79696B8185727D8186918678
:100080007F8B8E93918F96848E897F726C726C7C3D
:100090007972817C71777A777E7F7D89858D7D808D
:1000A0007A6E85828073686D7D7C716A7F8E8C9B91
:1000B000988F8F8F93949489798489807E7E787BC2
:1000C000767C858F998D93938A9185767F7D8A8EB4
:1000D000807569706F646F716D7D878A88857D70AA
:1000E000767E737579727271716E6B67616C737203
:1000F000787980857E817C7C7A727D807D827A7839
:10010000827C7C7F7C7B8581898391868D8C7A8AB9
:10011000849E8490827C827F6F878F82A97E8E7E70
:100120006083807782979985A383847A776E7093B2
:100130006A7E6F73769186739F918E7C8A826482C9
:100140007C888F8A666F7D7C858177798B749A8CA9
:1001500091978C8B6E7A746E9390979C847E7C784A
:10016000736A6270738F8D8F7B9787699169787FCF
:10017000727C7E7C697D685A796C7D818B9A9284D1
:100180007E817E8467647670585A625C787E739153
:100190008F8A79798580948B95879B926A7D6F751C
:1001A0007A7A697CA1868C8A6F7D89787F98978915
:1001B000818B8174766D6F717E80848A7D7F797288
:1001C000777E79838886858B827A7D777B7B7A764A
:1001D0007C7D817E81807B7F817C7F838887889006
:1001E0007E817A7882857C7B83808282848180860E
:1001F00083817C848A77837A7C7B777A84888394F2
:1002000085867F84807B80807885877985887E77E6
:100210007D726E72837F838D817D816F6E8081831D
:100220008B9A84838F8C80727466616879808586EE
:100230008482868C8F85787A7C808B81717A6E6AD5
:100240005E798D94908E9A938881886B757481897C
:100250007D787A707D7372888E927EA193938C7B69
:100260006F645F586E75616675889095A79F9F8DC6
:10027000948C8A8A7B877E6A6D615D6969728C9CC9
:1002800097909CA38B8882807D79716978746E6960
:100290006A6F7A87868E999DA29E988E88847471E3
:1002A00074736F655E6264676C7D8A94A49EA39A82
:1002B0009A94877E685B606B6B77848E8E8E867F68
:1002C00081867F7E7F787A7C7C7D857F8489857836
:1002D0007675726F71707A8B867C848E8694928527
:1002E000888B857F7A7876736E6A6B7E7A76767184
:1002F000838A8979808A9595938A8085797E7B72B5
:10030000707572717A7B7071787A8B9B989BAAA6B4
:100310008E8176655F635C64706770859C9AA0AD22
:10032000A8A7A0938782736A6966595B636978831B
:10033000878A8D8486898A7C797A777A807D7688A7
:10034000868C968B8180817676807B7E82837C888A
:100350009187909496999F928E8177666464565F98
:100360006C7B889F91919296857F867C7870726B6A
:1003700070666A6F77767882828A909292978D8C77
:10038000918C7D8380726C686B616A676E7A827F04
:1003900082888A93928A797B73727D7B757F847C55
:1003A0007C7D7B84878585888B81867F8A8E8E7F06
:1003B00072758492888676807772777F7B79848560
:1003C000948F9287786B73757071717F7A7873757B
:1003D0007679757C8D90867E877E7673776F73795C
:1003E00083878F887F858C9B87887E858D9DA69D42
:1003F0009896A08D7D696966625F67767A7D869042
:100400008A88837F88918986726A6768756C777E2F
:100410008DA2ADAEA39A85726A635D657F827C779B
:100420006F818F83706D7473726C708184807C8235
:10043000888A8F816C6E706D747678706D6C69715E
:100440007A7F8A9597A2ABA49D99928B836E666BF7
:10045000767C8294979D9B988A878A858C847B7111
:100460006F6C6B6967717C7E7C8187848C8E8280E7
:10047000817C645C575C68716F79919CA4A7A49699
:100480009489796D696B6E797178898E8C8B95936F
:100490009D988C90908D847F736F73766D655A4FA5
:1004A00057666C6E7D827E818C8E959793938E823B
:1004B0006F635F5F67737A82898D8E8E80788385A4
:1004C0007E7D807E8492959FA091868D978F959A50
:1004D000978B8981858B7D767D877D848680828CD4
:1004E0008C8782796A6771737E807D81817D7E7D54
:1004F0007D78818E8983806F707B79706F77706C67
:100500006F6A6A6D6E6E707472878C858783766988
:100510006D6B6C7374778B9999999F8E847F7679C4
:100520007B7E849A9680818E8F8B969B969D9D95DF
:100530009293867B7E7B788398A29E9C9B9B957DE5
:100540007C807F807F7670737A7D7A74675E574F88
:10055000475F7D8E93999A9A927B6C6D6C64676607
:1005600068717E786D6F71747C797F848679696B30
:10057000737E7F7B6C706B6A778486939E998C8781
:1005800088868A847E818C8F999A95928D8F8B8CA8
:1005900091939A988C8885837F84898D95948B8696
:1005A000898B87827671716F655E62626676808103
:1005B000898C8C8F928E857B6E615F5C55575B5EFC
:1005C000697B88949B9FA29E978A7D71635E5C5B2A
:1005D00065757D81888C8A898B898D898276747115
:1005E000707272808B929092918F928F878386889F
:1005F0007E7777787E7F807F858E959897918887A4
:10060000827E827F7E848B8F8E8F847A7373757BDC
:100610008B9592908B8C867A7472757177787A85C7
:100620008980797C7B7C828484888E887E786B62EA
:100630006A68606469727D8B969B978D7A74665E3A
:100640006466686A747B827F8180868F9BA29B919F
:10065000807975797A7C7F8A9395948C82726D6AA1
:100660006D6E7278818D8C8F9196989A9CA49F8ADA
:100670006F615E626A6C6D7389909B9EA0A9ADAB41
:100680009F948575655C5C646863657782929294DB
:10069000A2A9ACA3907F726F6E675D586267727794
:1006A0007D89908C8A7F7262575E6A74797E827FC0
:1006B000777872726B6870766F6E777D86888D8CB6
:1006C00087878789847A726E6F6D767A869188843F
:1006D00086888F9294989A9A9084766F70757576C2
:1006E0007A7D8282868580818789929899938C8C85
:1006F00085827D7770727B7C87888A9BA5A7A29D67
:10070000968D897F726761616D73757A7A797F8A58
:100710008E908A82808683776960554D555F676CBD
:100720006A6E7A7C76737A8297ABA69B8B7B7170AC
:1007300064534C5363717B838D95A0A8B4B6A99F75
:100740009A9182796B6364686D77848B939A9A949B
:10075000938A838D959690847C7C8689838481722C
:100760006C6D686D73757D8B92928B817C7F7766E3
:100770005A544F54616A747A8591A2AAA59F948AAB
:1007800084827B7570707C8D92908A83807B7B7B6A
:10079000706F778490949189837A76797E7D777271
:1007A0006E6D6B6E7D8DA4B1AFA997837771644F29
:1007B0004148596F75747D86929C9C988F81807D8D
:1007C0007769666D7683847D807D7E898A85796E82
:1007D0007489918F8A867F7A7B8081817C726A6638
:1007E0006C778B97A2AEB1A99680766D61565866EC
:1007F000778B93939B9F9EA1A09E978E847A685A35
:1008000051535660718A979A948B8974645B6169BD
:100810006E6E716E737679808488848A88888C94F1
:100820009A9F9C979191897E7C76726A6E767E8182
:1008300085939DA0A2A5A196867D6A54514E535FD3
:100840006F7C8B999F9F938B7F74737478756D66A3
:10085000635F66777E776E6D7883858582869195F6
:1008600094989FA3A496887C6B6971787F87959EE6
:10087000A29D8B867E786D6B6A6866646A6E7B82E9
:100880007D787B818B8170676B706D76839BA4A074
:10089000998D7F7171747B84878180868E9BA49EE5
:1008A000857A818174757986897D7773849493873D
:1008B0007E797A7A818987847C7B76747C84848152
:1008C000808C8271665D615F59667A899994948D96
:1008D0008B88808D8B7C7874707074746D70757873
:1008E00081919698948B7E7A83878F8A7A716B69CF
:1008F0006A7072717D8B939794919CA2A197898065
:10090000756C5F545B6B778B99A3AEACA3908A88B0
:10091000878273615D6B6D696B717883898482886E
:100920008A8C89766E717D7C6C6457586369737F9D
:10093000868E9BA59E918E7766636266686057621D
:100940007D8E919C9DA1A1978C8486807B7066642E
:100950007380899AA5AFB2AAA19C9E94837A6F6B8B
:100960006E6C6B747D79787D7E828C8C88959EA46C
:100970009E97887465525257575B6D7A83888E852F
:100980007F8B8E8680756C6B5E4A404A535B6577C1
:1009900085959399A4A4A098918E8D8C827988884E
:1009A000827366738993908D968C8782736D726C57
:1009B00060616B83909A969EACA6937B72797671F8
:1009C00067656F747A7C7F80817F7C808B8D8F8D53
:1009D000887E72696D7E85838088908F817476832E
:1009E00082828A9CB1A88B716867645C5A63859F18
:1009F000A59C93959E9F948B90917B6B5E63716A8F
:100A00005E5F696F75818692A7ACA29E98918166A0
:100A100051586E75777F847E847F747D8C88818049
:100A20007E746A57495E6F797F898F8F978F817740
:100A30006C656D7C82929D9A95918C838C9A9FAC0B
:100A4000A7969298968179645C6C757783A0A1A132
:100A50009B87848B857778726B6C5D54637F897D0F
:100A6000766D6E76746C646664697374717878718F
:100A70006E675D6266666B7281808A8C969E8E80E0
:100A80007A79747D8A8D94A9C0C5C7B5927D6D6B46
:100A900065696B7893A1AAA9A1989993887E736ED2
:100AA000686C6D6668677182919C9FA1937B776F7C
:100AB000747E747167675F606573878C8E8C918EAE
:100AC0009288765E4F565A5F6D7A879194877D7FC4
:100AD000818C898684807B747373747A777779725A
:100AE0007376838B8C87878A8C837260535F747C68
:100AF0007C818F959DA29EA39E8E837E7774726F5C
:100B00006B717C8695A0A7B0B4AFA08B7A6A5F5F4B
:100B1000616B7B87959B9A918A8C8E98938F919429
:100B20008C7B71635B5358606E797A8B9998897C62
:100B3000736B67676D727574747B7F7D7F80838252
:100B4000888A868583858B867566616567666A7324
:100B50007C8D9A9E958578716D6867676D747D89C7
:100B60009EADA89E9B968E877F79787D818489969D
:100B70009C9E95867C76767D818A898C84736C6850
:100B80006B666D70777F8488878584827F726468E6
:100B9000748388878891887E7E827E7A8287868722
:100BA0008176747D84858C877B74767B7C7C77836F
:100BB000908E939A97959595928C7E717885909268
:100BC0008A80746D6B6B62504D697F86929B9F9B90
:100BD000938B7E7567544E585D6473828A8D9091B5
:100BE000908883888D8378747B7D7B726D6C666161
:100BF0005E6B747C899AA09D8B76665F687B817C36
:100C00007F8C9490939BA8A99A8F887F70676A764F
:100C1000899496979CA3AFA6927E6E7071726C6D4C
:100C200072848C91928D8A7F82888A89848A90844A
:100C3000695148505D67767E8B8D8885888F91924B
:100C4000857B7673706B6E7F8C8D8B8E97A6A39A47
:100C5000908B897A7671838C8B8B8C897C6D5B57BA
:100C60005B6570777786918B82746B69736C6B763A
:100C700080806E6A68675A525B656A717A87948C65
:100C80008A8E97958981807E77706C6E6B70737F8A
:100C90008C979E9A918F8D908F8D9391918A8B8D49
:100CA000827C77717F8E94989CA0A09C9C967F708C
:100CB000605C5C5E677B8D9799979796988570606E
:100CC0005756616F787E7B7D827F787A817B7A7CD4
:100CD0007A7C837F716A6465656266707C8C9DA294
:100CE0009F9B918B8179777168666B6C7488999FF3
:100CF000A8AFAFB2B09D8A7D706560636973777E7F
:100D0000889599999C97918E8D8B8881736964657C
:100D1000635F5F646F7C899390878680777170755D
:100D200073625B5C63696F83969B9BA5A7A9A19285
:100D300088827B6E6B696C70777F828B93908885DD
:100D4000878E8D81736F716F6A605D636C707B8756
:100D5000919DA3A7A69C8F89806D595250555A62C8
:100D60007D929D9795A1AEAD9E9081756A594E502A
:100D70005861708189919594919394909189827D25
:100D80007772696068727B81868E9396959C9A9241
:100D900083746E71736F6E6E767E7C7A797D8280DD
:100DA000828080888F9696939084786E5D57575E88
:100DB0006D788792949089888886897F766F6E7A1D
:100DC000777E756E70728D99A1A39FA3A3A0928365
:100DD0007E7E76737A82808185888680777277813D
:100DE000878C9291979593897B6C5957555A647566
:100DF0008B9CAAA29594938A7B665F514E515B753A
:100E00007C7775797D8C8884767780827D72757623
:100E10007E7D8589949B959590887F747274737597
:100E20007B7D899AABAF9F9181766F726A66667C93
:100E300095A4B1B3A9908B7B6E68646C7B85877E2B
:100E4000817D7A736564666C706D636D758082797F
:100E5000767C74737177857F77676E6E6B685C6282
:100E600076879FADB1B8B5A992857268696C757EB9
:100E70008D9EA19FA2A7A4A39A8D85898F949B90F4
:100E8000867971675E58646D6A6C778693A29D9BC4
:100E9000938D7C71645C5E62635E616A7D808B8C25
:100EA0008F929497938C7C736B695E575D788D9568
:100EB00096979A9EA09489736963656A72838E93EC
:100EC0008F897C6E5F5D677A85817F7D7D747C8D87
:100ED000979E968C857E8580797A7B858A90969A76
:100EE000A1947B695D5C5B5F66727B7877808A9595
:100EF0009A978C7D6B626261575154606E727583F4
:100F00009AA4B0ADA19A91887D6358595B666B7CB9
:100F10008EA0A6A3A7ABA7A7A3958D85837A717290
:100F20007B898B878497A8A8967F786E67656D7B91
:100F30008D9097948675605D5558616E7F8A97A1F4
:100F4000A89C866D62656A6E767A798B969B9A927A
:100F50008A827969606064707F8595A4A5A39C8B63
:100F60007A7367665C575E697871726F716F6970CA
:100F70007A83898473746E6B676F6C738FA4ACA46F
:100F80009C9492867673726E716F717C97A6A2A400
:100F9000A5A096857066708187929A9D91807271E6
:100FA0007A82848992A2A8ADA99889645B5A5F6904
:100FB000717478807D716F767E949B9C9B979286EE
:100FC00079716B61544E51677C85909CA7AFA68E5A
:100FD000786B5D56575A6C7A899AA9ABA39C958712
:100FE0007B7974716D6A67666B777F8F9CABB5ACEC
:100FF000A69C928378655B54505458606C777E83CE
:10100000828C918B8C8D878381828284867C736AAB
:101010006265686C77848D949E9FA49F93806F6BAC
:101020005E5A585A626A737E8B908D8A88837F7C61
:10103000737276787978787A858480776E73777929
:1010400080898F92929692928F8C8B8F96938D8DB2
:10105000909195999D9FA0A3A19E917C70626169DA
:10106000707683929CA39D8D786E6C6B696C727B9D
:101070007A77777F858182828179766B625A5A5935
:1010800058617393ABB3AB9B928F847A6E6C70761E
:1010900077787F838B8B8985837B797C80878A8B2C
:1010A0008885837B736E65656E7671665F5759635D
:1010B0006D6F78838F9D97887970635B595F6E78C9
:1010C000808D9C9A8D79737072727077838D949EE7
:1010D000A9AAA2988C827C7772798390A2ADB1B6CE
:1010E000B4A4958775696362697789979F9D9B9B77
:1010F000968D8A86847F827E827F7C7D73757271F5
:1011000070747977716D6665646C6E6A7280979899
:101110008B80736E685A5A53565D667891A19A8F88
:1011200081766C67686D6F7678818D929D9B9995BD
:101130008C84736E6D6F6E7275757E8A9AA6A7A683
:10114000A09385786E676C64646B727D86939798C4
:101150009A9D96847773767C7E8583807E7880895D
:101160008B8783858785807D7A7B787D8282807C72
:101170007D7B80848A8F8C8B8C909795918E8782D3
:101180007F756B6C69686E767B8491969DA0A4A038
:10119000937C65554946505B677887989C998F8505
:1011A0007A6E6566777E8182807C77726C6E7379E9
:1011B0007D817E7D818887848685868182898F8EE8
:1011C000898787847F83868A8D888B949A95928D70
:1011D0008883766C6869686B77848B929596979A0A
:1011E00099908271665F574F4C515A5D616B7C8E4E
:1011F000989EA4A59D8F8173707473716D6C7281BC
:1012000088868888848585838B8F9396958E88833E
:101210007B706A6364696C78818E979D99908B80EE
:101220007D7873757373757982929A989A9FA19E4F
:10123000978A7E756F67676C7275787A7B7C76713A
:101240006E6D6977889AA7A8A195877369686663A8
:101250006267727F868E8C898C877E766E6F7370E4
:1012600071727073716F777E888A887F736E707702
:101270006F6B6D6E72767A81888988878F9DA9AB36
:10128000A6A7A8A39B917F7A7D7E776A6970747107
:101290007A8394A0A6ABB6B5AEA7978B775E4A4C7F
:1012A0005051515F72848F949AA0A4A6A0979C99E4
:1012B000846B564B4A494F607688948F8C8B898912
:1012C0008580716865656B74808A8A8A8E8F908745
:1012D0007B756F696B757B828692A0A198948D87D0
:1012E000837D86868484807D7E827F78797D8086FA
:1012F0008D969C998E827B7E786A656F7D7F7E80DD
:1013000083827E7F7F797C8183817F7F7D7B736D0C
:1013100067666362646D7C8C9BA2A1A1A0968873B2
:101320006658524C49515D6D78858E979B9EA5AA53
:10133000AA9F917F726452423D4C6170808E9AA345
:10134000A5A4A4A69F8F7B6F737A7C78797C7E7E20
:10135000787A8186838797A4AFAEA5A199887264B5
:101360005B59616875848D8C847E7B7878777C810D
:101370008284817F7D7D7B78727171777E868E8F8E
:10138000939393928A837E7F82827C797C7E79722A
:101390006D68625B595D666E737A80858788878524
:1013A0007F78747173787F848990989DA0A3A3A699
:1013B000A7A7ACB0ACA29B918985827F7C7A777D10
:1013C0008382858380818484828587888A888584D6
:1013D0007E7268625D5D60636C7A8687827E7778F4
:1013E00078766E6769686969686462626264656C70
:1013F000747D838E989790898582838178726D6BD6
:101400006B706F6F787D8383837F7D7D8080787440
:101410007173787D7E7F7977777A7F82837F7F7D16
:10142000808388898F8F8C8A878B8C8F8A817E7F3F
:1014300080828383858B94979A9491918F908E95D7
:1014400092908E8B9590928C8485888B827D7C8106
:101450008687868D8C8785838787857E7A7773706C
:10146000706E7271767C7F86868883807D756E6BE8
:10147000696362605C646D767F8080777881878D38
:1014800089867F7D7B75706C706B6B65676C7A93FA
:1014900098A3A5A39B908C8B8D8B887D7477757694
:1014A0007C8490989B96929AA1A19F9389858B8A20
:1014B00086796D6F686F6F7876707378858B94938B
:1014C0008F857C77787B7576746C646066748386B0
:1014D000817F7B746E6F737F8991909597928A7EDE
:1014E000817F877C7276706C6967677071717E86A8
:1014F0008683848682878177787F827E7D79747601
:101500007A797E7B787D8483817D80858C8B7F80DA
:101510007C787C848694A09289878F8B87868A9436
:10152000908F95A2A3A39985776B655D656C747C9C
:101530007C7F7F87898C918C878A8887918B7D6F50
:101540006B65666F747B80888687857E7171716E2E
:10155000727D8E9C9D8A7F7B78796E6161655F5A12
:101560006B7C858780797C7F7D70737C7A7E777CCD
:10157000818D979AA4A29B8D8A8795907C81838C7C
:1015800092A1A0A0A49A8D818073685F5C626F7A3B
:10159000727C88867B71747B86837B82897B6C718D
:1015A0007682867F83919A90857974746C6E797D4A
:1015B000796C646E78807F787C7E7F726F7C858D9D
:1015C0008A7F7A7A726C6A6E6E6F6F6A7683899799
:1015D0009FAAABA09791887C7167655F60687B91DB
:1015E000A0A7AAABACB0B2B0A08B7F7068676B71DC
:1015F0007B878A91897F808D8E909AA0A6A4A08CEB
:101600008174625E5E554D4A474A57647185898C84
:101610008E93918C827263616562696865606365AF
:10162000656466636777808794A1A2A59C96928C77
:1016300089867C6C6566656B7E959D9EAAB2BEB7F9
:10164000A5969491897D75716D645E6674828285BC
:101650008086908F848797958B848996A3A29080AB
:101660007261514F585E6B7687A1B2B4B1AD9B8960
:101670007D6B5D626152504E4A4D565F68675B59A3
:1016800065788EA8AFABA08C797981837B717373F9
:1016900075757270778188939CA2AAADABA499836B
:1016A0007C76675B4E4B57707F7F81858A939292E1
:1016B0009D9C847877818A887D6E604B3940504F3D
:1016C00058677C8A97A1A8B1AEA79F9275666162A0
:1016D0006A6D7373818E8F96948986939F9C9DAE5D
:1016E000AFB0A697968E867F7D78777A796B747E79
:1016F000869B9E9FA6AFB6B3A69A89846C574B442F
:1017000048555D686C6F75676B717A74787C7D8005
:101710007F786B6C6E807F65544C4C505468769427
:10172000A9A2AFB8C5C4B4AC977F695753585664E3
:1017300069687B8FA7A8A49C928D8A898785797513
:101740007A7B7A7A7E8075604C4A5C636A7B9AAC5D
:101750009EA1A1A3A49585654B3E3F515F6A7B89FD
:1017600089919AA7A7958A90998F847F8082857E98
:1017700081897E84908F877F6E6B6360718FACAD43
:10178000B8BAC6BB9C867E745C4A444E636D657570
:10179000768B9D928679788284807C74715C5964A2
:1017A0007284837F8085807163636C727D8FA4A651
:1017B000A2A5AA9A7B605A5C5953587897A09F9F1C
:1017C0009CA7A79C8E8A838387786F6560524E5F43
:1017D0007E8B85878F918C878081787076898E84C7
:1017E00083868E8874666768686463697A898A8D7F
:1017F0008B888B8C8072687076818C8F8F7F7574EC
:1018000076686163697E98ADBABBB5A9A4A08B72F6
:101810006465636B7985908F867D81817D7B878E02
:101820008B837F8B90897369646E7A868D8792969D
:101830008A726154464047587997A7B9B9AD9377F2
:1018400062565549495766708CABBBB8A5999184CF
:10185000797E7979747885939896928B837D818E41
:1018600098847F8F8D7C6C62626F7D8198A9AFAF09
:10187000A28D6C5A52535956607E847A7589988E1F
:1018800080706A6A5F545F6D727B7E8183828D9700
:10189000937858607D8B96A4A7958C8F8C8D775FFD
:1018A0006D7B7E84909C97A2A79C9C8275767E7DA2
:1018B0007987A0A9A0917A71564A5569717E8BA249
:1018C000B5B6AEA19B807F889390887D70686B5A77
:1018D000514F4D5E748E968C939A7F78718281768B
:1018E00071645647495A778B8A787F9AAA938A7A85
:1018F0006C5F5A62778A949C988875797C8385930B
:10190000949BA399999C9E98897C6E64657284824D
:101910007F89928E868385878072685D5B5B5D6957
:10192000798796A4ADA28F887E6D55483C3C43587C
:1019300070899FAAB0ADA9A0ABA99B867069727E81
:1019400078655753576A7888909FB1BAAD93837A78
:10195000755A534E536368778698978B8E9A9A9BE5
:101960009F9D9C9694938A7A5F4E43445155697427
:101970008AAAAEB8B4ADAE947F715D5D61647471D6
:101980007175718B9DA99F84868F8E89827E7975F2
:101990008B929C99949A948B706A656A84919CAAA4
:1019A000A69C9898967A634F424D5F636260617F10
:1019B00089949B9C9E91857B664D483A4A565C650E
:1019C000748B9397989591917C787B7A736D7281E3
:1019D00090999C96998F8171717181878D9C9EA041
:1019E00094928D795E4E424E575A6C7D8FA6B6B951
:1019F000C3B9A894796B5F54504E617F8D9E9C92C1
:101A0000969791897B7260526B79817F797F8B8DFC
:101A100089837D736B6D70787F95A3BAC5C3B8A8B1
:101A20009D876F504A5050555A6C75879DA2ABA741
:101A3000A499928D8980766F70797C7D7B7C787695
:101A40006D6965616367757D889295958F877A6EFC
:101A500065564A4F56535367819CAFB2ABA9A599BF
:101A60008C796B61615F5B5C6577858D99B2C0BE77
:101A7000B9B5B1A6927F6F6B6D728186847C736DF0
:101A8000686A6F7C88949B9E9E9E9793866F5F4F3B
:101A9000444451606C737D8DA5B6BAB6AA9D8E8103
:101AA000705D5247464B515762778AA6BBCED1BF75
:101AB000AA998A7B6F685F64767D79655A627076D1
:101AC00076757F8C989FA2A29A87705E575A5F683E
:101AD000717A84868383899AA9B4A58773626462C4
:101AE000615F616E7B8885868C9696938D7C6E6433
:101AF0005C595F5A585E6E8CA2A28E80868984796A
:101B0000777A7F8A888B8B85807E828F9BA09D963B
:101B10009B9D9A968D8D9098988F87848890968EAD
:101B20008C8A8A8E918F8A858179726E6A63554E0E
:101B3000515459575A6B808C867B6C655E5E5F632F
:101B4000696B737C8C9FAAB1ADA39A91887D7771E4
:101B50006E757A8395A9BBC4C2B09580756A665FBD
:101B60005D657381847D78767374716E68686C7955
:101B7000858F92888179746D6463666D7A7B7471E8
:101B8000777B777D7F8B8E8B8A8186817C7A787E4E
:101B90008A8C8C969BA29E979290938B8C8683784E
:101BA0007474797C787A7275737D8B979B9B98910E
:101BB000868279747B7D7B6F67626A757B77747AC6
:101BC0007C818788888A806C5A5451595D6470750D
:101BD0007871747D85888B8E8C8A8887838C8F8BB7
:101BE0008A7F7B828891989DA39B979896938F8FED
:101BF0008C89817B7B736A6063727E8D93919595EE
:101C00008D888386867A6D666B787F756C767B7A35
:101C10007F85939B9D8D807D787367615E605F6338
:101C2000646871737577787076797A7D8188888633
:101C3000898C898E8585807E7D8390878E8C898531
:101C4000827F838C95979BA6AFBCBCB9B1A69C96AE
:101C50008C837A6D6760606A7277797C7F7D7E7B2A
:101C600078746B615E5F5F5E5957544E4A55697375
:101C70007B797D7F7C7C8284877F74767A8791985C
:101C8000969692948E8C9796928A85858792939554
:101C90009993958F938B837C7879838B85857D74DD
:101CA000737B8786867F7977767B767568605D57EC
:101CB00053514C4D4B4C5869808895988D7F6E6977
:101CC0006C6F6E6A6C73828B9499A1A4AEB4B3AE40
:101CD000A29B8E8A8E908B867E83838C958C8A8540
:101CE00082868E8C8B888187858D877F817A7D74B3
:101CF000766F69737374767E81787E777574737787
:101D0000797D7975747B7D7E827F7E8A8F9D989C9C
:101D1000908992999D8C8B828B8B837D7772686979
:101D20006A758081837D82878883787F8689827ABD
:101D30007B84827B7371716E6C707976736F717A4C
:101D400083898C8F8B84857B7370736967665E5D16
:101D50006174758489878B8C918F8C887F7A777E6C
:101D6000797B82747E838984777D87969D9F9C8B07
:101D70008175747674766C67696C767676787D8D0D
:101D80008E979593908A8C7F8A84817E7C7D7675F0
:101D90006E6B6A71717E858B857F787C8788908970
:101DA0008984857F8B8885878690939FA1A29C9F3D
:101DB000A19C95928A878C8D8D807476807E7A7CAA
:101DC0007E7D7C8A93A39C8E8A85817B7C727875CC
:101DD00072605D5F666661706C6D61615F5F605DC2
:101DE000605C5E56615F5A5C596363675D5F616CFE
:101DF0007469686973787E939D99998A99A2A9A25A
:101E00009E9B99A394948F9393979A999A96979D52
:101E1000A6A4AFAAA0908B8B80806E646665656A6D
:101E2000727B76757C80817D7C7A7E8778696B6E2B
:101E30006C6076817C7564728498ACB2AA9FA89A13
:101E4000968F969C7D817981828D8D857E809A8703
:101E50007C697B877E79717891A07B7790B2A57E33
:101E60007175674F493D606D68626D807B787788DA
:101E7000837E73787C7A807C77707B7A7F7C898A9A
:101E80008888879383857E8A7B7674767B716C568F
:101E90006D686157708AA2B9BDC1BDC0B49C705451
:101EA000424540506B82897C7E868E87817F8895F3
:101EB0009B8D858881716160626164637588919C86
:101EC0009A9698928789919D9F8C766A69695C4FF2
:101ED0004B52616D84A5B9C2B9AFA69A8574696386
:101EE000646056576161686B7D9FB5B6BBC2BDAE7D
:101EF0009F90755B4B41363938485E79929CA5A01E
:101F0000A4B4BDB8AB9B897768554E5348474E542F
:101F10006E8592A2B9C8CEC6B19F8F7C614B403A04
:101F2000424C61798B9CA5BAC8C6B79F86776A6315
:101F30006272727479797E747472767B818B939BF2
:101F40009D9A8F82817B715C5E606063686D676A59
:101F50006371829AA49F9A8F89827C818A8D918DE8
:101F600094968E7A696A6965666B76839096959B7E
:101F70009D8F8781828A89867C74655A5C60656AD8
:101F80007D8F9CABAEB9BAAD9E826F56493B354052
:101F90004D5B697A839298A1A1A0A09A8C818084DC
:101FA000817167594F4A4E51545D7188A3B8B9A9E0
:101FB000928A7E766C6974858C867B7476726F6B80
:101FC000788C98A4B3B8B09D856A5B67707C81817A
:101FD0008A9098A3A18C827A758A938F90827E7959
:101FE000706E6A748394A08F8E948B7768757679FF
:101FF00078809397907A625A66625B677F91A2B20B
:10200000A79986705D50586484939BA1998A767BCA
:102010008D8D7D6E5F74828A7968786E6E849EB5D0
:10202000AD968F8B76593E2D2D375678879AABC754
:10203000D3C3B2998E785D52545F7276696E6265D1
:1020400070777F7D76737A8584888E7C7773899D9F
:10205000ABA58D8377777872656881A3B7B1AFBE82
:10206000C4B9A486706056576772777880838F9161
:1020700085838888888A808278745F525C666D6BFD
:1020800075838571615E68666667687E94B0C2BD5F
:10209000AFA190796262626365575A7085878782C3
:1020A000889592929492969496A2937F7B695B53C3
:1020B0005353656D6C828D989EAEADA29079756D0F
:1020C00060616F6855464C5C6B7A7C86949C9CA1E1
:1020D000AAA99E8D8477839098999093968469603D
:1020E0005D5E5C697A8EA4B3C7D5CCB9A88E7259EF
:1020F00045444F5759617481817F7F7E888B7E80F4
:10210000887D70584D444E666F808FA4B3BFB39ADC
:102110008F8A7C71707875716269919693816D6216
:10212000636057545467848C8A8A9CB5BCB4A89A5F
:102130008F826362666B6A6B747D908F8D959698C3
:10214000A19C9082887B71685E61636C6354536567
:10215000798799A8B7B7A598817464575A5C696D57
:10216000767F8589979E9081787A6F7886888A862F
:1021700083767D97988F807F92A6AB8A7262645B2C
:102180004E586583A4B9C1C8D4D2B2896D605D5A76
:10219000535F7D989D8C7C87918A7B6B6F7A83855A
:1021A0007D7D8D939483776B6A6B605960717776D0
:1021B00077848D928A8885847D6E60607788805E62
:1021C0004C4F6D80786E7792ACB49D929292806EF7
:1021D000686A7D7D7D6D646D716955577090999CBD
:1021E000A7BDC4B58F6E67707267606E7D877E69AC
:1021F000758C9C9790848B85745A444E50575E5DC5
:102200006D7F8B88859BA9AB8A7155566F88877DBA
:1022100093A4AA91A6ADBBBFAD937C8A8C886B7446
:1022200070777C686B78969D9186A39B9D8C889334
:102230008785595A4F5D5E62646886A3BAB9C7AA9A
:10224000A2888471646B65746C74657A7981857F0A
:10225000838A9394968795746F59636168686192D5
:102260009BB79497778089767C5C797471656D767D
:10227000848282888A927887748596866B5F675E8F
:10228000696E7D75807D7D7D797D7E866D716A74D8
:102290006D807B675C55666175658482816E7C921A
:1022A00096957C9792B3A3A08883877F7F616D5DAD
:1022B0007A87A49E92A9929B93A4A69E90736F7C0A
:1022C0007271696878737D698495A29783836E7C47
:1022D0006F71717571758584929FAB979A85848BA8
:1022E0007F786C766975768688958772686B7B7F58
:1022F00098817B787B7A78798AA1A59F949C8D8838
:1023000075626665726F6D718997918D828E8D8A07
:102310006D6D756C656D66677B8DAAA9B08E7D6DE0
:10232000614B45525B6D69616485826D606A7D8732
:102330007C706C6A6461665E67879899A2AAA5A39F
:10234000A1907E8B79666971868B9C919AA8ABB4BB
:10235000BEBBA9C6B68E7D7C8FA6A8938E948275CF
:1023600080807A757C798194857E9085787E7B6C7F
:10237000695C394556575D6D727B878A8C928F7187
:10238000615A6A869C836382988B6B6C7686A39075
:10239000807B848186878085888B8D9A8B83716D05
:1023A00061636D72747E8B838357545F736F758521
:1023B0007E909DA5907A6F79828272626A6473754D
:1023C0006D666F7668717B98A1A396938C7D7C7FF8
:1023D000867F867E786C7D7A717F858983857E8312
:1023E000838F8F9792848C878E7C81858D84878B59
:1023F0008D967E9190959DA4A28A7969647584706A
:102400006D6E828D939A9794847B72777891858391
:102410008D9AA1877B6A757B7A6967656C7C7C8005
:102420008C92878B98A4A5AE9C888B7A694F5C6E42
:1024300076796E8088796B797272686B7B92A38FE4
:102440007C7975646A596F777A7375836B6E718165
:102450008097998E9593988E957E655A4542535BE9
:10246000656551494A66718197938C8D8D878A8500
:10247000777671676E7E7C70798281979F9195A245
:102480009B8E95938C95A29C9789878A856C5870B2
:102490007E8490A0ABB4B69A8A928B7065625C69B8
:1024A0006A68667677788585818D94887D6C797089
:1024B000705F626B5E6874817A7370706E7D7A850E
:1024C0009FA0ABB1ABA5A49D97898E8975776578E0
:1024D000959E978C9AA5A699816862636162738ABA
:1024E0008D89757673696B74705F616162636B5F10
:1024F000606A737B84948E8A8A87787A70707C7B1A
:102500007E7A7C78839094857B7E898E837A7376BD
:102510006862545E7A8B897B7B7B848296999DA0CE
:10252000958A8B8E84878A9B99907C797D83857E22
:102530009199A0918A868B7A69696276728182917B
:10254000917C807A73626266718C90858289877BC8
:102550007A6E7D9297938F999893837C84969283D9
:10256000848C91979886706C7678807D77837F775E
:10257000726C665E676F80887E7B766F6D746A644E
:102580006A787D8D8E857F828E898E86858B8F740D
:102590006A7371717372789DA4ACAFB4AFAA9A7864
:1025A0006154544E5B616A757F71757D76869BAA16
:1025B000ADBAB8ACA09C93817669686B67656156CB
:1025C00054665E515B72766A6B7C8CA1A49A9F9F65
:1025D0009D8781736E707273838B8C948982767BF6
:1025E000676C77848E87877D74737B878A8A898AF4
:1025F0008E8977695D5F6D767B7C96989E8F6D691D
:102600007587787A807E978C8980879999A2A5A210
:102610008372666565614F4F5E6A8A918A878180A1
:102620008C9A937F77737A8C847271645A6B8088EA
:102630008093A398A59278758478707E89909594FC
:102640007C718190889084848E958281806F757171
:1026500074728EA7A29B97949AA68E7D7A7A91B275
:10266000AE93897B7469666365696A605A5F5C686A
:102670006B62637A7C7D7474716A6A6A7F7E777A32
:10268000817378968F86807E898E978D9CAAA49F71
:10269000949481746E5553595D56514E476B879B88
:1026A000A3A28F828D82747573787A7A7D7F8F8FE3
:1026B000847B6D727D7C7E877D74888D8A7C8D8F16
:1026C0009EA89FA09BA58CA0999090868793A7A178
:1026D0009EA0A69190929AB4BAA081736E877C74E2
:1026E000565765696F5B6A6676627479706555598D
:1026F000547A71848080767F927E7F7E836B635B69
:102700006F7F79625A8A8F8475717A78797580843F
:102710006F747C73777A7E7D887D6D8A917B61632F
:1027200064727969606D8087898E9BA6BB9B9AAE27
:10273000B0A8A59F999287817298836E64726C5C31
:1027400063506D71738196938C8F8478868F8882A5
:102750007C7F818A6D6B84726670869DA891757E80
:102760008C92806D58535D5F66889F9386828480CB
:102770007F6C716C726E748480897F87868D96936E
:1027800087857E768A858D88919EA2ACB0997E835E
:1027900081825E6F6D77665C706E7D7E9E9EAFAE51
:1027A000A0888586797C70695B5D63798F77848882
:1027B000A49B96B0B2B3AD9A7E908F997C857483BA
:1027C000999891808B7B836A6A70857B6B6B616F54
:1027D00073746F6B6D7276867C817D68716A6958DF
:1027E0006E75777263646D7A6453565E6568597668
:1027F0007C898EA59B8D857F785C5F4941405B68B5
:102800005F5F738D9C9D9896A595949096948B91FF
:102810008C8D7B8681817E75767D7E766B675C662E
:1028200073787F7E84949B8F91958D88847B798A41
:10283000A999A2AB9A929C9692A09CA5A5A9A69AAA
:1028400096A4978C8087808F9B8F937F95895C72ED
:10285000714D556C73786E6B6069734B6C63597115
:10286000759097997A546F624F666A6464666B607C
:102870006FA561706F758B7A8873817263759280B2
:1028800090907C78777B7A817F71696F7B797B7A96
:102890006E826C948E647B738E9288A197948C6DFB
:1028A0006060767D8AACB6A294A2BDA6927785BE02
:1028B0007E768F6C6B6B908A5E7985949F857C8920
:1028C0008DA4A1818F867347718B62AFC3A7858F5B
:1028D000946A616F6E58575C4B3A728FA5738596F8
:1028E000738E83917E836C598DA37558476274698A
:1028F0006958879CA78F6E7A7B73806473655D9A35
:102900008A98A5958C9782676E82657B955690A371
:10291000B7B27F8180B0A978515D57739A9DAB9310
:102920006D576F7A616C9377726381845E8796903E
:10293000ADAE9EAD908E888D8E978F808B785E62C7
:102940006D647781857866687A8A88858D9A7567DF
:1029500080768F8D86726D917774676170606B7B06
:102960005C4D5B7E85777690A887919A93A7A79E0A
:102970009B8E99B9A38D969AA09186816E816C4E9B
:10298000767C6E5E52716D838451556283744C54B3
:102990005F5F676A7778736B596454535041406640
:1029A0006E7A94969984A0AEAE958D848090828044
:1029B0007D7A7C8C7C6D919CBAC4A3A588866C536F
:1029C000505A6E6A797C6B81AFA291909D9E9C8AD1
:1029D0009F9F929591A296907D7CA0A78C9AA0B083
:1029E000A9B4B8A2A0898B8FAFB0979380597C7897
:1029F0005C5253695B6C4D64655C5A567E6C6D4AE3
:102A00005D8E957E6B889586808F7F706D848088C3
:102A10009468735E576A7F785B78838C788F7F8049
:102A20007B718F7C796E766F6D5F6A5D6D6D64789A
:102A30007A846A8A75635C658B9E9A91A2B0C4A8F9
:102A4000A7B2B6A88171788792886E8891AB9C7D79
:102A50009287A79A89737A8D877D70949F9F94B38C
:102A60009F8780999981695D725A7D6D7C7C766FB4
:102A7000848566696C8C676D59849A7C7C898073C7
:102A8000908C9D999E8B85645C687B6E67998EA106
:102A90009B9C848CAF938693967E8E868D7D6D6C89
:102AA00070977B6879746E6E524E606369768F7F23
:102AB0007E887F726F79646360757E6B575265683C
:102AC0007451626761715D5D6D6972716B91A0A2F5
:102AD000859A8E84999B9BA5BEA28E98B29877808A
:102AE0008B9F9678886F706F729F7B8B868B9076AA
:102AF0007F6E93919289737665856C86863E578644
:102B00008C91906673666481907A7F9193986E6ED3
:102B1000A78B8DA47385626A77BBBE7C826D637E52
:102B2000602F837D7C5A6178696B96AE5F8477876E
:102B300081809072948BBF9681B5959CA880827D90
:102B400077907BA990857F4D574238557E999F821B
:102B500092A98FAFB58A9E755C84A0A08E6A7A8D8B
:102B60004F536C493B4A6584595F86808FB5947991
:102B70007E665FA8B68C9D93797E7460A07C7D890B
:102B800097A59EA19385535B3F6662618B7F808989
:102B90009F8A7D8E70596654677851626A6176A605
:102BA000B0718471536B79B3B076959A7C96A48E8C
:102BB000907C5C78868A9DA9ADC48D7D795B5A4FE7
:102BC0005E818D8E958BA1A2909C906373B5A0932E
:102BD000977E88707B7E928862534D5E726F849977
:102BE0008D8F7AA18E8C97A3A19DA58A7F79715A2A
:102BF0005A82927C8C9487869AABAA6B7E69443DFC
:102C0000367F897877737580726E7073475A555026
:102C1000737B6E687472876A574E73868194A3AF14
:102C2000B87E53668292757A7A7E967D717A695BF8
:102C30005C83A4998775749A92A8A498A2AFB3876D
:102C400084A09970909AAA99807080ABA1875C78D3
:102C50007D8E787F817C8C708571749690808F8D4D
:102C60009375545D76747A6E6570656A51636970A8
:102C70005C657C788389A9B092918D879B8A908CC2
:102C8000788070808D78716A54313852605A8B86A2
:102C90009C9C89858BAD98AAAFB5A8CCB0BCB2A9D5
:102CA0009E90925A5F6672647D566B826B5E6D7BFE
:102CB000717C8E8D6E807E918D706171716C617191
:102CC000897C7D6E6E70696378898C9A9394A0AAD2
:102CD000B89A93A58C7E9275909F989180947B73FF
:102CE000655B707C868A7499805B5E5D6B5D5882E3
:102CF00099889A827C5F433F4958698A69808382B8
:102D00009F867B4E58747C886E708695837A889DEA
:102D1000787A9B9086799190989C837B7F899EABF3
:102D200098A1ADB9B088546675514E5B7D76674405
:102D30006254689B808282A0A8A89CB6C1AD8A7F9D
:102D400082897C485C69796148565861667D887ED5
:102D50009B938F8190A26B747A696979828C8BB115
:102D6000A7958279837A6E73998467628E76704FA5
:102D7000485D747F768E809FB0AC99A3A9BABF815D
:102D800061676B40345E788A907D6B5E55716676C4
:102D900083759085949B7B816C78946F8087978CEA
:102DA00074918B9262788B75A4BBBD7C7D8D8D7F79
:102DB0006078998C868E8C928B73576A536A72777F
:102DC000818EA1735C728F9CA18374838F817558EF
:102DD0005D788A797579809C947C777D6F8C7A6830
:102DE00076888C82877E605F726C745E667A909E55
:102DF0008A97A7A899827C99A1A59A9C9A7D7468C4
:102E00006C4F5C716E59619F99A4A2A59C8C9686AB
:102E10008E8F877C66585A6B654D738B989495B0EE
:102E200083706F777C7B5B3A616B859A9D83748A34
:102E30007E8B8C8D8A7F6774724E4858636B707C72
:102E40006C506F62758598A3AEB7A69D9193948CD4
:102E50007B897C7764718D70778AA3A2A28D797744
:102E6000666D707E7A757C808AA5ACB1A1B7C4C549
:102E7000C198946750464A453A44515B73707282D8
:102E80006B697BA9B5AEA5AAA69083635D5D606EF4
:102E90007B81796D6659585A5D7B6F7E6B73816D4E
:102EA000756F7E7A857D88887A91B5A6909C8877A3
:102EB000728178808369726273836D6F4D548487E9
:102EC00082A9C3B18DAEA26D817F94685A675D6C93
:102ED000667689938A7E7E93AFB5AEB9B2A08E90A6
:102EE0009F86504E8A8C7E9285624C5F5E6C9451B8
:102EF0007296585F698068429398A1C0A594979292
:102F00006E7F6FA98B3B979C486C8EA0987D8B84BD
:102F100068838B67794052889064224EA4736387DC
:102F200071BB9F60A078827B6DC68A9B8899C38D98
:102F30005D5A8E816B6F9A8A5371AF96484B6A5D6A
:102F400057508781678BA6A6997A7189809B9BA928
:102F5000C18E7A7796A16E744C7C7B7F809C8D307D
:102F6000A58064838B8F8D6B667E83A594C9BF9685
:102F7000717087614E7185665B3541634E42564B79
:102F800086B0A8EDB59D9772938752617E7F797C5C
:102F9000C1968E92898952A3A09BB9717E796D8F5B
:102FA0007C6276957A62595B677E8C8F917374949C
:102FB00090755A6C7877868D7F51625A5D7DAAB381
:102FC000BED6C7AEA4AA635E696C4F5C967E7F7A5C
:102FD0007A737479898A88AC9674657C8C928581C1
:102FE000927D9EA6A0A9888F9B9283718E6E464586
:102FF0001C3659595985918CAFA399857F798B7768
:103000005E6F72757083656E7D74827F80778A9043
:10301000898E686E7E7B817C999A8FA089819A9A2D
:10302000948D889371719AA4A1959E8C755E616050
:103030004D5760726E869887736E988E939F927CC0
:103040007376767A786C61694B474252686477830D
:103050007F9095918F8A877E7F708088857B778629
:10306000938C757F6E667E707678767C6C809886A1
:1030700081757081809C8993AEA39B8C8C72655BFB
:10308000728BA2BCB8A3A5BB889BBDB795726C57C9
:103090007069596D7553321E3431518697C0C9A27B
:1030A000718A90797294BCC0A5A99C936F6E845369
:1030B0005F3F2E346B9D8889AD887A9F98857064B8
:1030C0007A58569391B48A9385576A5E7BAB92A4E3
:1030D000C0B5C9A6A6786D5639527179837E323C47
:1030E0005366557F7F9992648E9B9E7D7D9095A2BD
:1030F000AAA29D584D597351776851A28C82678658
:1031000097AB819884929A7D874364322B5465797A
:10311000707C88C2B89DA4AFAF82897D94A96C6E83
:103120006F7473689188717856576F5E79B0C6A2D4
:103130007F738090A8A4938E82716C847A6F7E9541
:103140007D7884937A796F6C8482756A654D59575E
:103150006D747F84899E9494B4C0C4B39C8252667B
:10316000958D7E7B97BCAABC84717E48647A604F43
:103170005A516D64587481897D8073A5BCB3879B57
:10318000BBA29C71583F58645C414D7A7D77A9C4BD
:10319000B7BDAC9798B4AB8F7480653A2E372E408C
:1031A0006C8CA8AF988CA1AC9BA4B67E7A6A5E5951
:1031B0006B51506572898F9E787C8AA07D5F2E222C
:1031C0004457565B757B877C7E99B9AAAD94787914
:1031D000848F6F6B7996958978678581787272850F
:1031E000827970676D635C515B7B8A90939BACAE18
:1031F000AD9F8D8C6F6C616E716A6A797563858124
:10320000979597A7BAA38B929DB5A3A498708E911A
:10321000607D888B77747C5E5F55342C55595F8454
:103220007D899FB1A7BCE2ABAFB5855D5B7779893E
:103230008591B38E776930303A36555B829C90A386
:10324000B49889A0B6AEA1ABA9B09883655E543995
:103250004754586873847E515A4C3F4753649DBB12
:10326000B5B6CED1B3C9A284867368646C70686445
:103270005C422D414F557388A2B49A938A969587E4
:10328000968CA89E96826D76818D656C99805F8400
:10329000838A97776243607D6266A6A498B5C6C2AA
:1032A0009DA08191674C66666F748F7B865C3C3312
:1032B00047477CB6A5ACA6B1A5B0B7D6BE9BA6992C
:1032C0006232402F2E303957687C8D988D9ECBAD61
:1032D000A7A2979A8185648AABB8C0A4AA8386887E
:1032E0008C875A62504030172E5F84879FA5A4B305
:1032F000936E808178808C9C9B8558413D464F61C0
:103300006A817B6A8593A19A977B666F7D9EACA646
:10331000B0BDB3BDA98D878F9EA2B3A18A66664D4D
:103320001B25263D465D7A9B9996958296858179E7
:10333000657387989882727175654E6F88868294DE
:103340008A71705A423F667B96ADA6AFBDAAA29F16
:10335000979E9F8C668481686351412C2C2D445527
:1033600070828AABB2ADAA9D9D86717E7081859771
:103370009780988C746A808C93A9AAA5877A8C68A8
:103380006E715877A5C8A89BA294938681805C5FD4
:10339000776873798473604B3C3A4D7C8E9D999726
:1033A000866B6988706583ACC8BEE0C89A74534C5C
:1033B0004E6E78866F90AF8E8C87816D7D66697B4F
:1033C0008495A0A48C8D7B8E897D636A6B707285D9
:1033D000A3665E51614A6493A391BDAC6179739910
:1033E0006E78957171ABA1A6A9A0AF7F7C5C565B8E
:1033F0004C463B266766586735707C685B87A173CF
:10340000727C818BA98A89ACBAB9BBD1B8A57A7113
:103410008E84766063646B64655A778E79B1C3CBB2
:10342000BDA6919E8B8686727F708D554967795DAA
:10343000477A6263626E71888C869692A66A6A7C0D
:103440006D8ABDC2AD999BA38398726D5F5B8E67D9
:103450007493877E646C694B847A739E8BB7C5B511
:10346000A5A9BE8D715E475D6E768CB4AC8C7E4F27
:103470003B264D4B33574C7E8F7A736C8F8F9DB2AA
:10348000B9ABACA69EAB7A71454055486A83ACC2D5
:103490009E7D717073859C8E8E949FA7A69D785C8F
:1034A000617480838E9EA09F8C735E47321D1817B7
:1034B000243C65939FA1968A7A6B645A616E6C8AEC
:1034C000948A897D85737A899A9E928CA3BE9D8AFF
:1034D0008DA4959EBCC9A8A3A6ACB17F7C6E79775C
:1034E00090A5757A74818D78A08C7D6E7C9C8B7193
:1034F0005130374B6A793E8186805069835882B15A
:10350000AF81B0B7A7797F91A36B4A7B697294A012
:10351000955471A6946E3A81B4D289798A797A7574
:10352000BAC3897A7D6C675A664F59848073A390B9
:1035300061748AA09D7B6A4C43858EA984809D79A5
:103540004F344E5A505684A0A47F5F7C6C60957AAD
:103550008AA27578688DAF7F61726D4D4B70B09B9C
:103560006F929585769A9F708EB2AC5F749E7D60E7
:10357000458AB1B8AC888886937A89847983634A0E
:1035800073BB9C968FA385889E9197738D7DA8CAE7
:10359000A27B528F5F54624A866C7D889E988E8F84
:1035A000946B3E4E3D5F6071846489B3AF98736DD8
:1035B0007783514F52536D96B5BE8A767E707F8465
:1035C0009B7E6861724D5B625A595B8D9E9C9480B4
:1035D0007B91969D9D737E916F5247B6BFA0897A6D
:1035E0007E92815A705D6F666B8F866577B5C598E0
:1035F00095AAD8B39DAC96A89B92A59D8E8A737C04
:103600006B7E8B725E62867D637962616C636574CA
:10361000A58268696971987B757461936F68605A57
:103620004D4678556B6576966DAB96A2A691A9929C
:103630009A84899B9499786861649C826D7970788A
:10364000788B5C80884D545D9EB5A4636388758ECD
:10365000B8ABB0985E7CA7B5908A8C7F9295B1B1DB
:103660007F789374757D6688786C72915D828665CB
:10367000C5BC8A698A5E6DA47E5659637968658780
:103680007477A1C082759E62578C8AA16BA57787DB
:10369000B07F943998716075696A4750286983884A
:1036A000AD79575B829B86885E42869884B25B3C8C
:1036B00049899C709370A49165988B7E9F896292D2
:1036C000988BA2657DA19185973557CA7B7F935CC6
:1036D00083DE79A2B0909597747F8F29645F456FE0
:1036E000C2926B7367A4A79E777BA68F755D5C58AB
:1036F000437470848391A49CBA9FCEBC936B88B6AC
:103700008B72879366655085A27E3B577153907389
:103710008A9D7EA6BCAAADB499A19081745D6051CA
:103720008961706F4973737F798D7A86897689870D
:103730005C848078926F574B5D537D666A6E5C7ACD
:10374000857F638692906A596982738489717F85C7
:103750009A8BA777A5B299BE9E80716D7090716F9C
:103760006B7E677E7D4F818590A0A685918E928726
:103770005E6A6B8C6F5689939BA2A9967891897922
:10378000767A8D8578808B5F556B48605559827A43
:103790007670A0785D7870736D6E6A677D9D939585
:1037A000705E59638177A7A6838F8A7B988B96B4C6
:1037B000B1A0897686B4D7D47A7D88939EAFBA8E2D
:1037C00086606F7F706B516B77607D71616E7F86F5
:1037D000715F6E715257718E8B839C9096B0A3A8C7
:1037E000A08D788BAAA2A3987F908B766D4E689F50
:1037F00097989C845C3B3E4760556C63888A839EA7
:1038000088888386506C7A5B4A56656C544564712F
:103810008B767A777AA48E8F94A89C897B687E6D4C
:103820008A7F705D49557B7B778FB2C1A09F7F9E59
:10383000A69C81666985785770639E9C9CADA5B9EE
:103840008E9EB5A88488AAB99B6B6D688DA1B3952F
:10385000717A8A7A6164729C787B7E806B658589D7
:10386000877988847551506871656073797D7E753C
:103870009A7366705A47447E6F838D9EA797849192
:10388000A39F87889680867586818669596B728C1E
:103890006933486E86534D7E7A89737F75A59D5135
:1038A00062777C94AC74626D7C90625D63897C44C9
:1038B00075A9A39AA0A2A6A2AB99C2C1A7A572623C
:1038C000798D896F8C9E83947A8B9784787C8C9E7B
:1038D000A97F47527288716A65758C81AD98B399DA
:1038E0008E9D9C6D6161648F768F89A06A50696737
:1038F0005B4C566874806D5A756D87897E8A9E9C74
:103900009CAC999192A09879625062657B90ADAA27
:10391000754262827D8F8FA1937D5A5E5563677673
:10392000748FBA9EA9948F7F7B8A78837F93A7B187
:10393000A58A945243443A37535B6384A1C4D2CCE2
:103940008C8C6A6D7A8871659C948B878878877C6B
:10395000776953688C92868B90977A7C927A6D8186
:1039600079866669565C6C5A7A6FADB2966D7E86C2
:103970007C92918A66808B9388987EB7D0A3B78A11
:1039800097635350516B3E4B7E7554667D8C867E9B
:103990005E576461575D5663625F75779690968651
:1039A0007F85A59A8295908D7B85788684788AB06C
:1039B000BAB1C1C5C6999F969BC29D8964726C7A43
:1039C000784C74605E6B858F918B86837C63616FAE
:1039D000688F6C6E748F888C987A703854597B7AA3
:1039E000616469906E8598928C858C8980646A7E0A
:1039F00067515752606B8C8280B2A78E9BA98A87D1
:103A00007C6B5D65766B7D66709EA8969DB5A39F69
:103A1000B2AB9DB99A7B8D8D775C8B7C6D7F667226
:103A200083A59CB69D686A767871865E7790714DA5
:103A3000778B705D6A7656574A2D3955477E886D6B
:103A400075C8C9B6D1B39C8C946A8C92594B77983F
:103A50009F9080868A8592B3ACA9767676766F55EC
:103A60006A9FB6777188827A785E59707784727DA2
:103A700073565F4E86948D805F77849195A8BEAC17
:103A80008E908CA1A7BAB68F957D7C7690926D783A
:103A90008B9780766E7D857A6948596A7D908D8393
:103AA00072696C8EA1876B75796D6275835F4757FC
:103AB00067666E6371727C777A8F8A8B998F808349
:103AC0007D8389948171658E86B2A48385898661A0
:103AD0009257497589999FA3CE96B5907F7C50AE39
:103AE0008F973D59494F73374C508258857C8C9243
:103AF00089C88C752461585A938F7965A4A2B063E4
:103B00008F7187976AB18FA09F6A90A97457989D0B
:103B1000A9B6958E83AE7378638D755C6F71A98736
:103B2000674C6F5258776A3F609C928B887084977D
:103B30007F859396AFA8BDAB9FB571605A625E61F9
:103B40004A638782A8887F7A5A907A809281A89760
:103B500090847676898B8574927D7E778A9E6B7D44
:103B60007C948D9C879B68576F6082868E6E6F6198
:103B70007D635C7E83A1A29B808295936D6163705F
:103B800098737B848586889171A58F8E84849874C0
:103B90009C6E6A5D5D58486B6F98747E7F6D6F6830
:103BA000937C7992937150573F75B39E999D957E02
:103BB000787E858DA978707B799B8F8B888A98A574
:103BC000827F88ABAA5F5B807C6D798B795E6F5D4D
:103BD0006174826F6183ADAE989576726765557337
:103BE0007A7EA6545F63617D8CA37E9E7C70525E5C
:103BF000715C8287A27E988A6D74767C91ADA8A74D
:103C000073595F96A9A9BBAFC3B49594A1BB7D714D
:103C1000AFAA804E64756A7882819B9278677576C8
:103C20004892B7766732477095C09A937691817FB4
:103C3000778B71362B1E7183B3959180A3CEA7CD60
:103C4000997C735D6E7C7789515B757E9F91856FE2
:103C5000684F77A2B3896261455B7A6C69758BA8FE
:103C600094857D604941566C716BA2A1757A7693FB
:103C70008598909AB79B9787817E545E9685794EFA
:103C8000669D9C8BAAAA95A2ABAC96A27062534487
:103C900059505868624C517F8378A09FC2C5B7D2F3
:103CA000B6AF9D8A6674766C5615282F5C61607776
:103CB0005D587A7F9BA7B2A683A99B96917C808A48
:103CC000A797789F948A8076746F6D6F8574617200
:103CD000949999A1AFA07E85907E88769287588628
:103CE0007275604C59648E70607E8D836C675F72F4
:103CF0006D6987868F8B938C626F8C90797F7163EF
:103D0000635C5C384A7061535A769794ADAF828F8A
:103D1000C5EDEAD6E9C588675F84899269665F5216
:103D20005A526E62747C889687A0AAA8926E798394
:103D30008693A1927B5D7698897E698C89726A4CA4
:103D40005F5B4C58648283708595887C7288797536
:103D50007281777194A0C7937F77899AA58E8F9788
:103D60005C5B395C7A8892735450669FBC99949CD2
:103D7000B3C29A69656A666D88886F51526C6772C2
:103D80006E7D827A7A7695857B777B7F7B78727E73
:103D90008B8B776E76757E827B877A81787277726D
:103DA0005E4A567E96A19EA0B8BBCCCCC19E929A8C
:103DB000A79D93968D8FA7A78EB59F938156584543
:103DC0005C513D362E58798893A6B3A081876F70D9
:103DD000807C7153585E6F71747D968A8D94787B68
:103DE000837F756758697593A2A0A0AA988F858B69
:103DF00097665B555384947E7169796A5C67899E86
:103E0000918BA5A9B7B6A4A09998878D8D8A86674E
:103E1000495059645C686A6C796A69708898978BB4
:103E20009C9995938E9376706B597379724E505915
:103E3000666F6C745B6E74897A8A806B7D93856F14
:103E40006E65777D8C80737189988E8083747679A6
:103E50008A8C707580967A8EABADB19698A2B4D5E7
:103E6000D2B28F82776D6D564E2F223F4E796C7392
:103E700094857E87847582877F88998D82899AACA4
:103E8000B497A09996A5AEBA9286758799A19783A3
:103E900075717D8C808381697E77887359647E7F9C
:103EA0006C636C6344473F384655546E6A737F8D2C
:103EB0009689A4B8AEB4BAC7B0AEC89C9385807BCF
:103EC0007F776A644D656D6D736E7C7B74858086CB
:103ED000847370676265717B8989776B6964687BBD
:103EE0007460594D494B4948475A676E6D778185D3
:103EF0009B9DA5B3CDC4B8BCAFA89696BCC0837437
:103F00007C7A6D687C817084826F81959F7B7A7DDD
:103F100066807F869875767A818697927881778792
:103F200092B2B0919A8C757781958B6D7370676A38
:103F3000778F838DA278735F719C9C7B6273636CB7
:103F4000747781746C887C90979CB1919190847502
:103F500065636275897787B38D7C9D8F9F82689436
:103F60009E74735354635D7266545C827A86627584
:103F700069364F55768B6C868A7F85779D8E7677EE
:103F8000676F69565156645F857A707C7C8B99A106
:103F9000795E70A5B080909F88748F9C797F7BC577
:103FA000BCB29A6360655A545A587D819B95B4A8F7
:103FB00099B28C73A4C3D4AE9DA79AB0ABB7A092AC
:103FC0006064766B6A8474829699C38B6F8A99A0B9
:103FD000895E7F6A72614D6D4F776B728768755F1E
:103FE00087886E7D73786D6F52415750679B8674DA
:103FF00066878B666C86A7836B799CBDA27F66649F
:104000005D6A84777E7F8E888DA29FA39E6F777274
:10401000A5BC80916B787D7B8E97877B787B9CADF0
:10402000A48D827D756650445049341536384D78DC
:104030005B57466C795E747E88978DA2A0A6B89D6A
:10404000AA8E909596A1A3B1A7956E7F8E9A9EA3F6
:10405000BBA292A6B9C0A48A7665616E8D7E776692
:104060004D393C56402F343A443B3F6F68666551AA
:10407000525A7D838A868A7D656E8A978889808078
:1040800091B4D4D6BFB7B3A38FA6A081847A8A7522
:1040900078897B67636F7C7977808E979F907D9A14
:1040A00095877F917B797E7F7E8195917C7CA39B98
:1040B0008C819D9B9492A298848F845836627C7EDA
:1040C0006A778D7E6D97A27A55454E51646D9398AF
:1040D0008A8478797B7E8FA2845C53577C8B7C7337
:1040E00058799AB5BDAFA8A8A293998990907A5BA8
:1040F0005D574C566B665A4F575F657A6A635051ED
:10410000516D879C9EA6AC99A0ACA88E95A1ADC61A
:10411000C3B9CABBAD84718888887D7765656976C7
:104120007C6145445D4C5067778A8A767668636A1D
:104130006A706365778E8C7B6E7D868F8E98A19C6E
:1041400099968B8596958D818085929BA69687887A
:104150009B95978E6D888E85726447504642565F58
:1041600052495A5F6263828789839A8489A09AA29E
:10417000A2B19D939594867B71586F726F707A94FB
:10418000708A7E808F847D8381889C8C887B8E73EF
:104190007C71818C6D69668875506675767D8296B6
:1041A00096A3A0A49F7B7F85745E5E6B7C867074F3
:1041B0007B798C938B8570728A9684777C7C8276EF
:1041C00092969D857C8E718083766E70777C939EAF
:1041D000867666677F828B787F9382898B8B8B8BC9
:1041E000A8C2C7D2C9B4A76E61653F4A4C4A3E3DDA
:1041F0005E838E8B95837B6B6774838B7C6F5A3960
:104200003A61715C56697D9FA89F896C5F81B09A05
:1042100082848B828F835F53506E94A695785777F4
:104220007974958485625D7A9BB0777B5C518D99BA
:104230009F8078888B8D9FB8CBBAB7C1B6B388A062
:104240009483976E6F6F816656817F969295927E6A
:1042500068697F746E797E6C6B6A7E6A5E555158B0
:10426000638F7269787A7A878F9176748B6C6C66BB
:104270006053437BB1C8D1B9B99F87BACFCFB09152
:10428000745E807A5D515A668FB2AA77656989AA91
:10429000AFA18C9570635F58506781778490766D7D
:1042A000726F779DAB96755A56536F7478625D79CD
:1042B000736A70656D7D95AAA38C7974495D717779
:1042C00068617E788377948C92A6A5B7A1AEA893F7
:1042D000989B76582E4E999472494F5B6A8F888EC0
:1042E0009096CABDBDAB8E74626C928D6964666334
:1042F00050676F69798584AFB19F797088BCC2A21D
:104300008E6674719E9A7977747596A389776673B1
:10431000809194835D4C627C818A73596B6B869427
:104320008788758CB4B8A6907280908D7A553E3788
:1043300055759AA1A380697675776D6464655A6F27
:104340007B795B456A8283818F928E9CBFCBD4C17F
:10435000ACBAB0A2663D31417F795A464D70728F3A
:10436000A1938A90A0B2AA83786F85A09B8C684F96
:104370006D8A8E8D80616F65505B63664B3A4764D2
:1043800073754D577A7E9F9D757480816760615605
:104390006D7167819AA6AA9EA6C7D3A7868C8992BB
:1043A000A4947C77807D746D6D6A6D97BDC8AB6792
:1043B0005C657B917A727E9BA8AA9F9B9BA6948842
:1043C000A4ACAAABAFA48B83967B6E797E927F8FD1
:1043D000A38B90A6CED2A9978A8097936F595B62E0
:1043E000686F76624A3F2F42667F68505A778579B8
:1043F00081898161617B697065444C53432E3E59CC
:104400005F6D74767B7D838189898AA7A38C897C83
:104410006E6B5A6B7F71818C856B6E7D757A93950F
:104420007A766F7B7F8A87828988927A82A49F8E30
:1044300080986E76B8B7D1C2969B949FBE9F959890
:10444000776A5E6E86626A73707274988B665D4678
:104450005A7577775D66767C838F99B0A3ABBAA7E0
:1044600098859497A7B994757759392F0F00223200
:104470005150659D939B958DAEBCB8BCD2CBCACC38
:10448000A59AA2AE8D5F50595E604A434B42595285
:104490005D6F4D5FA7A092B8CBAB98937050476DFE
:1044A0008B8E9FAAA0A5928188714B4A658E7C5401
:1044B00075594B5D6D7F85A1B2956C5867572C4738
:1044C000607BA0AC95AE9EA0AA868C71859E99A1BA
:1044D0009D967C6F80716261808B8C8C8B929690A4
:1044E00089877C7C67616488A099909BC0B3B28AFD
:1044F0006C7B6B725F5F454B4D465F6A756B6F609F
:1045000098938D957683789BA89C989C997E776CE0
:10451000959081918E9491A38C95A4AAB0A684784D
:104520007C74705D635D51698095B7ADAB90969E6C
:10453000A2969092746C647059565144506D8C8759
:10454000847D75744D65807C745E5961594A382349
:104550003B4968656D7A899FA5909FAC9EAC958A12
:104560008C9F9DA8917B84785E5578808C92A9C39E
:10457000C9C9AA999079595B4A586557645E5E50DB
:1045800067898D958E858C8A9DA09C8B8F95787C74
:1045900087A093896D65667B8EA8C2B9B3BBB193C2
:1045A000A79EA7817787959A7C7E79605060666D1B
:1045B0005D5B656D7971748675615758536180775D
:1045C0007078676A70739D8372767F937373767F5A
:1045D0007D788063757E859D9787899C9D8F7866A1
:1045E0007979737D72797F939FA4B2ADAA8E7D771E
:1045F000787F98ACA6958A979BA4958E9B94776AB2
:104600003C3D352A4A3E3E313F2E2E496082A6CAA5
:10461000CAC0BFC2B7BBA39FA4A39D7E72615A5EEE
:10462000563F27323949707C94A5A391A5BB8D9044
:10463000A6A0867F8A90778BAD88757999958890AA
:10464000858E947F8571614F34341A1A42636B7181
:10465000749F9B8B8F92A5D3F5D5AE7E7E756066D9
:104660006E5259777C716F74563A5F9BA3AEA99DC9
:104670009699A69A8A91B0A6868A78605360695CFA
:1046800050757586A39AB5C0A775635C7089B9CF5C
:10469000D6CCAA74473B2B56596E94806A676C58E7
:1046A00057787690C3C9D8CDAA7F7E7D796F708404
:1046B0006B837F806B557385A8A29DC3928B867692
:1046C00081433E1D2619486370928ECAB9D8C2D262
:1046D000CAADAE82614F4E51685B3A323716234302
:1046E000627B9DA9BBB7B4B8A9AA9B9474674E39E5
:1046F00059775E4053757B91BEDDA4B0D1BAB189C4
:1047000091845D4644496B787E847D98A6A67C5B47
:1047100058567E665069646D8169695D4F63719A10
:104720008780708079677D7FA29B8FA2B6A08670FC
:1047300075839DAB8DA0A6B8A5848B70737480859E
:104740008CB5AEAEA7BFCBAFAE8E92ADB29B7C6B3D
:104750005B536566506986A0A4947C877F6F626D09
:10476000927F714741595156606788978F9E927A20
:10477000708AA77D9892806B50371741576C4F5FB6
:104780009185A3A47667548EA5B6B1A7AC96866C26
:10479000706466472C255563607D87544355809827
:1047A00090B9A6A87871696B7D7291AACBF2BD977A
:1047B000B2C69E48848D2D0C4759605E8D9E969F93
:1047C000B0DFB9C6C0A27BB2CA87627583887F5C3E
:1047D000957C728196AD99916725151717414B7C91
:1047E000615C5D86BC98AD837562A2D7C7ABA1C280
:1047F0009D7DA6D1A9612F6997A08477A473645F7A
:1048000087801D4D6B796FBDCA78676FAB7480ACC4
:104810008A797F90AB9C9C653E435EA7989DB4BB14
:104820009AA58B6869443040371040647B80858C42
:104830008B74959793A178A886A4A08C9C6C743AED
:10484000243A332251AFB89BC5E3A56C747E9159CD
:10485000435555788C8E93986C899F945F68776DDB
:104860007974A9986A657B83695A5D6B81ADCDD6F1
:10487000ECA5677992BFBD8D668BABA7A5848D9F94
:104880007876998E92ABAEA873424B2B5F54296514
:10489000546F6F58658881868B7D75799E6C545BEB
:1048A0008D9AA59B517A946E8DBBBFCABBB0A9806F
:1048B0008E6E3550556853456B7E9CA2979B8B88B6
:1048C000A386824D326B83B8C7BB9B7B765D8EAB74
:1048D000A0AB83594B5D7371472C4E6B7295ABC780
:1048E000C4AE8E6D5A42677C70747C849F8D707EDE
:1048F0007B5157646286868BAB8876747490768C15
:104900008B5350737E6F83ADB8857E796B6B667FFA
:10491000737C6A6273817E7A7461918E908D6A7DF8
:10492000A49BA4A7A29575635463485F5B433B2C8B
:10493000576B624C4D6980919B99A4A4A99899A347
:1049400090A79385898C9AADADA393806B7994855C
:1049500083869D8165646B7C80662E577094B4B0AD
:10496000D2C2B897A3989C998B94837B5B4B545984
:104970004A3F4A3D2A7186A5919BCFC2A497BEA605
:10498000665D6B62646C88645A5D6B62484C626DF4
:1049900084B59A9EB8CDDDC2957898B4A684655545
:1049A0003833394D5C6A616071819AB6C59E7787EC
:1049B000948AA6693C6255587F8884809A8765549A
:1049C0005D756C8B886B5E819C907250311922559D
:1049D000789FB0A0B3C1AEC4CDB69E94C2B7B67432
:1049E0006D594A7E7878433A5A4D4371776D6D958B
:1049F0007D8E8D66856A8995B3AAA3AC93868D90CA
:104A00007A808194ADAA906E434E556E686A5F506D
:104A10006A7A9C8F8D85C3D59A8F8BB9C4BBAD76CE
:104A20004F6D877A716E866B858290B99E7A5057EA
:104A3000516E6C56595D79A4907E7C7796A9AD80B5
:104A40008E73748D675E585A47674A4B839091689E
:104A50007791B4C1BAB69E9BA4A4865F5860636F79
:104A6000696075788D84666B7C85718C9FA3AE9927
:104A70009E9F7E8C8E7690A7BBB29AAA9E7B403674
:104A80005345404C6C706A696F70675F5755516150
:104A90005A5E849FB2A7A6AFC2CDB67C79AB8858C8
:104AA0005B816A4C2F456185A794968DA5AE9A953A
:104AB000A0A5A7948A6968693E585C4B62709FAE56
:104AC000A6AFAF9E5E4F5C4F4957522F13486A5BAB
:104AD0003E36567A85ACC6B9BF9ABEB7B6B5888C95
:104AE0008B87806A6463477491867D6F61797D7A74
:104AF000A0898C8BA1D0C3C6C7BD96889795989D79
:104B0000ADB09C745A42251B1623567088A5A2B4DA
:104B1000C5C5BFA8AFB9B5C2B2967A6247454522AE
:104B2000272E335B7D6F636B6A6D604848807F948E
:104B3000BBABB6AFB5A29F8B84A48994987E7366F5
:104B4000635F656851546073877E926B626A77A673
:104B5000A2BAADCA875972758B625553656F829040
:104B60009084908E8A5D618578797FA693807E910E
:104B70008A8E948C676678718A78706F51618376BB
:104B8000695E73868AAAACB4C6957F8DA4996B7052
:104B9000755C46545C5D605977A2AB9F8B8CA1B667
:104BA000BEC4B0909B9E8E717B7C7791756E6C5964
:104BB0005D7587797F7865809A9BBDCBD1B58F96DF
:104BC00080997665594A696B584145282A49777812
:104BD0006C71646D57526A7EAB8EA6A395ABA9CE5D
:104BE000AAB9B7946B696861627F855B56677B473A
:104BF000607A9EB6D9C09AB2B9AB8BA7BEC38F9369
:104C00008F7B746470817F755A577B8582765C5A7E
:104C10004C3D5935374E56564A556D808DA2A9A246
:104C20007D7C6D684B435F587160627D8D8A869490
:104C3000BFE1E3E3D2D4B998A29A826E6C6259655F
:104C400059423C47556C7972767F818B8EABAC9C18
:104C50008A7A664B5A63898B837993B49796A08E30
:104C60006D8175507C7E777C656184D9979EC4B9CF
:104C7000D89EAD80919671786DA9768FA379774A89
:104C80003F3107458F86A9658B8B7E976EAF9F98C6
:104C9000828BC396596D773A485F7F92697B6E7BB2
:104CA0009BA887AAA88A8F62969293B58C87AF8DAE
:104CB0005C2E4E7E6674535D795F5B5B6A4D6E68F9
:104CC0005D5E5A6469996280A37F79626C7DA6D625
:104CD000AF979FB3A1A9B29D846FA09F72518DA879
:104CE0009A849E7F4A3D2F4E2C4B645B8C9C99B6D8
:104CF0009473786E6FA7B794615A7F8D9189AEBF18
:104D0000887AA7937C57697A7F8A665E71878488E0
:104D10007E8A90AFC29A625366797C8C906760807D
:104D20008E7757649A927A7080907E6E706C8B9DAD
:104D300000000000250028002B00000000002400D7
:104D400027002A00040404040404040402020202EA
:104D5000020203030303030301020408102040803E
:104D60000102040810200102040810207A818987BA
:104D700082858C8C8A8D8C87837E7166625E595E9B
:104D800064666B706A5C565553535453504B4441A0
:104D9000434D5A636C7E9090827B7E83878B8B8C95
:104DA0008F9089817A74768191A4B5BBB4ADA9A5A1
:104DB000A09A959AA3A9B2BFCAD0D2CEC7C1B9AAA8
:104DC0009F9B97989EA1A2A6ABB1B7B3A28F8181FA
:104DD0008F9E9F99989382716E726F645A51433877
:104DE000373B3E46555B534F575A4F423B342C2678
:104DF000201A1D201A172431364355595452524C4B
:104E0000423F434A4A484E55575E68645754585883
:104E10005C6A787F807C746D6B70767C8691979EDF
:104E2000A9B1B1A99F9484746E7A8D9692877D7F83
:104E300092A6AAABB4BCB7ADADB3AFA0928C898635
:104E4000888C8E949FADB4B1A69D9896928B878BDB
:104E50009498928A88847970706F6D74828C8D8436
:104E6000746A696D747D8286868485858281827983
:104E70006C6562636C7B84827B7A8698A5A898783F
:104E80006051464D69869EB9CED0C5B394694A46F5
:104E900055677D99B4C8D3CEB69C8F867A7B8997A7
:104EA0009FA39B929DB4BBAFA08863484A5A6B8076
:104EB00095A3B7CAC7B1A49E91878D8F817268569A
:104EC00048505E6475908F73697579819DA88C6E6A
:104ED000696A656B77746770878C7E7B79604C59E3
:104EE0006E7280A1AD9482846D3C293533314E655C
:104EF000595364645866776A5A5E5B4D57737C7782
:104F00007C7C6451586262676F65524A49464A57D1
:104F10006777888F85808B9596A1AA957C807F6224
:104F2000515F68667380766F829496A2BCC3B5ADFC
:104F30009E786171807E8BA2A0939FB0ACAABABB11
:104F4000A8A6BBC1B5B1AC96899596837F8B887EA8
:104F5000838374758C9A9DA9AFA29CAAB3B3BFD367
:104F6000D8D0C3AC917C6B584A454B607D93A2A7C7
:104F70009F9391918C8A8B7E60494951565C6772F0
:104F80007C7E787579797A807F797B889AA8A491DC
:104F9000847F736D7C8D9298A1A29A8F8782776AA5
:104FA0006C7A868C96A8B6B6ADA397877B7062594B
:104FB0005959575F6C7177868773676B6351505788
:104FC00055565D574945423E4E6A78787A786B5C13
:104FD0004C341B0D0C1931475A7080807D7D7664EE
:104FE000595953433D4754637B8D8A7F81857D7238
:104FF0006C5F4A404A514D4E5D6B7B93A3A4A8B4AD
:10500000B0988279747071716D71869EACB5BEC0B6
:10501000BCB8B8B7B4B2B2AFA495897D7376828EAE
:105020009AA4A6A7ADAEAEB3B8B5AC9B80695D56E9
:1050300056606972818C8F96A1A197928E82746C52
:1050400064616A736855555A565C707D808689859F
:10505000868E8F88878B89858A8D837E87898188D4
:1050600098A7BCD5D9C8B396725B534E6192B8BEAF
:10507000C2C9C0B4B5AA85634F39263572BCEAFAF5
:10508000FDF0D2BEBAB4A99B7F5F55606F8CB5C4EA
:10509000B39F835233455E6477959482898E75669B
:1050A000737976828A704D464B4C597482745A4A91
:1050B0004A5B768C948E816E543A2C241D253D4299
:1050C00038445B5139312109113A5A7092A59079CF
:1050D000785F2B16222D426D898A8A8878798E8B8B
:1050E000684D4743497BB7BEA9AA9D756B869299C7
:1050F000BED9D0C9CABCBBCDC6A79FA38D8099A27B
:1051000093A8CABDAFC5C2A5ADB99A90A47F393ADC
:105110005C53558CA7846A623D2344686E86A69AC8
:10512000818C8C685F7D7B5C63808790A085514516
:10513000472618384A5174856B6E918A708AA78DFC
:10514000788A845F5F7D7E7688907E7F939396B623
:10515000C9BEC1D1C3A6A09571667F90A2CBDFCC9A
:10516000D2EFE1C1C9CEA27E807B6B7AA4C3D6ED1B
:10517000FDF4ECF9F4CDAEAB987167849999999AE6
:105180008E8284807073847C696F766B68757362BD
:1051900059585354637D929B9E98877A715D4B3F1B
:1051A0002A161D2C28325E8394ABB89A726250384E
:1051B000363D2E202A31211419294265818988889B
:1051C0007D68625C44363A2D1F3355657997A6AAEF
:1051D000B6BBA68369594024253E4D5E829F9D95AE
:1051E00094866F6B7470717E7A676D7E6F5C6D7A7A
:1051F0006B6670717381806C5C5A6073878880897C
:10520000A5B8B5ABA5906A514A403B4D6474879BE5
:105210009FA5C2DDE5E5DCBC9B8B807368584543E8
:1052200050575D6E7D8895A2A9ACAEABA7A19382C5
:105230007E868780838B877B80919C9EA0A19C9695
:10524000938F8A8D928F909088899DA7A0AAC8D8A5
:10525000D8DBDDCFBFB5A388829BAB9F96978E8AA4
:105260009DB3BCC6D8DFCCAE9A896E5B5C626571BB
:105270007E7C7A8A99968D8C8A8079735D3D2C2EFE
:10528000374350514741444E60747D808280766C34
:105290005F4C382D27212026344862777E828E9AF3
:1052A000A1A39D928477747D7D6A56505560717E6E
:1052B0008590A0AAA69E9FABBBC5C8C0AF9B8A7FA6
:1052C0007E837D71727F868A939EA2A6AFB6B8B6A2
:1052D000B2A89C9381614E535B5C666D5F4C454602
:1052E00052646759524F45393633313D505E6361E0
:1052F0005B5A6062616562544A4A4E4E4A4B536043
:105300006E819096A1ACA08F8C7B56485251546F01
:1053100084879AB9C0B4ADAA9D8D87857D78859222
:105320008F8A8A817B90ADBABCC1C1C1C6C2B3AEFF
:10533000B4B1AFBCCCD4D9D8D0CCD0CAB39C9194A2
:10534000A0B0B7BCC4C9C6C4C2B6A79D8F745F6203
:105350006C6A68737765565D61544F565349484F80
:10536000565E63626369655A5459626A71747576F0
:10537000776F6259544D4C4E515C6D736D6C717604
:10538000859AA5A4A09B9592918D8A877F77778235
:105390008E8E88878783818383817D766F6D75810B
:1053A0008787878F95959BA9B1AFA3917D726F6A0F
:1053B000696F73717682806E5E59555153595E667E
:1053C0006D6E6D6E654E4041413F4C61686B787B00
:1053D000695856503F32281A192B3E4C5E6D6C6648
:1053E000676C717A808283878F9183705F504648A3
:1053F0004F57697F8F9CA39E9BA3A4938481828037
:105400007B797C828790A0B0BFCCD2D0CDC8BAA91E
:105410009C9EAAB0ABABB1AEABBAC7BAA5A1A7ACC4
:10542000ACA79C928E929DABBAC1BCB6B8BAB2AAD8
:10543000ACB2AB9E95856D626A76808B91908B83C2
:105440007D786C62615A4E55687380929487838A26
:10545000939EA497816F5F524E60809FBED9D9BA48
:105460009D8C715C6164534F60686573888271774D
:1054700088847F94A58D6E65553C3E5C6F74859ADB
:105480009A8A7F786B605C503D3C4C5252627474D7
:105490006A666A6B645E616D7B92ADBDC3C3B79E85
:1054A000816855535B5D657F9490847A643C1503F5
:1054B0000201000D222C313B444A58645E504D4598
:1054C0002F24304359758E9FB4CFDFDAC9B7A89B1C
:1054D0008B796B646672808E9EAAAFB0AB9C909203
:1054E0009388838E9FAEBEC5BEB09E8B817E7B753A
:1054F0007D93A09A96A4B3B7C1CDBC8F6C5F554C79
:10550000536B8698AFCDE0DCD9E2DFCDC1B5987999
:10551000717675737E90A1B6C6C4B3A4968272717B
:1055200075788294A4ADB3B19E826C5C5257636768
:10553000686D6B615E605E5C61615450575C668251
:10554000A4BCCDD6CBB6A4907055525C5E5F6F8480
:105550008D8B8D908F8E8F8D898F9B99877B7C7D96
:1055600076757C7F7E8186827A7A80868E97968712
:10557000736A686057565A657A89816C5D5B5F62B1
:10558000626A777670757A77767774727782898AAD
:10559000878075696058545C625B555A5B585A60E5
:1055A00068675C534F4232323C3F44535D605F5CFE
:1055B0005951463D3A3E4649433E41444A5967693E
:1055C000708596989492908B8172625A5D69798BFE
:1055D0009BA6ABA9A092888C9BA7A9A5A8B8CAD363
:1055E000D5D0C0AFAAACA8A5A9AFB0B1B3B2B2BE76
:1055F000CBC4B6B3B09C8A848284878689959FA4E5
:10560000AAA5918076675B5A61686C6F71706E7243
:1056100073675A5C5F616D77716B7682807A79729D
:105620006869716B636B75778099ADB3B2ACA19B00
:10563000968D7B6C6A727679889BA3A4A9ADA8A588
:10564000A9A99A806C6664606681A4B9BEBEC0C315
:10565000C5BBA48C7B72768494A1ACB8C3C7C7C405
:10566000BAABA6ACACA29A9B9787746E798C9FA7B5
:105670009D8A7F79716D6E67554A505B6367665E80
:10568000544B47433E3E444034374447454B4C42DD
:10569000424B50555E5F55473C405053483F362F74
:1056A0003648585D5D64706F60524E4C48413631EB
:1056B000374356696D6969665D555562778A949B73
:1056C000A1A5A6A7ADB8BDB4A18B7A757C83868E43
:1056D0009AA9BAC8CCCED0CFC7B8A8A1A6AAA39B76
:1056E000958E8D97A0A09D9D9C9A9DA7AEABA39CE7
:1056F000948B8A8E8F8B878990918B898E908D89E0
:10570000848494B0C4C6BEB7B2ADA08B7F7E7662EF
:1057100053525A605E5752535A68716F7182919911
:10572000A0A19A928E8D8C847875797671747C891B
:105730009BAAACA8A9A9A4A5B2BBB5A59891908B2A
:10574000817B7B818A9193959C9E979191908E9677
:10575000A4A79E98968D7E726E737C817E7C7A77EC
:10576000757268594D444145505B616262615E5893
:1057700054555C615D57595B5856503D27202B3777
:105780003F43464950595A554F4C484C585C5A6013
:10579000696762666B6A676B706B5B4C4544454B2F
:1057A00056626E7C858587929C9A90877E736B6B20
:1057B00071737272767E8FA2A5A1A7AEAAA8AFAFB1
:1057C000A499999DA1A5B0BCC4C7C4BBB2A9A19B13
:1057D00093857B78797C808182898C857F838F9A81
:1057E0009D978B807D80817C7670665850535C6479
:1057F000676A707476797F8380797E8E99979594A5
:105800008D8A8C857468666C7A8D99978B7F7B7C8A
:105810007E8183868E98968C87899099A0A4A5A373
:10582000A0A3A8A8A5A19B95949697969BA6ACA982
:10583000A7A7A7A9A7A09B9EA6ABA8A4A6A2938250
:1058400073676264676F7F8A8D8C8A888889878690
:10585000847E76737572645855534D494A48474A59
:105860004F53545458626B727A7F7F7974737169A5
:10587000605853565E646566676056565C5F5C5A56
:105880005B5958616968656D777C7F807972727643
:10589000716A6D767F8C9BA2A0A5AEAFA6A3A39DD7
:1058A0009696938D8C8C847D7E817D7571716F6DE4
:1058B000737E8487909999948E87817C797D7F7699
:1058C0006B707F8685837C6D63656C778386848B44
:1058D00096958E8F8C7E7271767F898F8E8A878364
:1058E000807F7F7E83909C9B959BA5A7A29F9F9F77
:1058F0009F9C9794959A9B94909497989D9F999428
:1059000099A1A29E968D8682808388878998AEB958
:10591000B6B1ABA09A958E8E989B948D88817A783B
:105920007B8483756D73756F70736A5E5D66727E5E
:10593000847C706D716B61636A645C5F625D5B5DEA
:105940005C5955535A625E55575B5A5C6363615CA0
:10595000524B4E4F46424443464E5054636F72760C
:105960007B7975726D696454484E5C646D7D8B9271
:10597000969791898C989A8D828082878F92919A3E
:10598000A9AFABA69E9081797B8084858078727266
:1059900073716F798C95908F9694887F74645D6233
:1059A0006761564E4842414A586A859A988D8C8E56
:1059B000847A7670655E5D606A7C898B8682848F6E
:1059C0009793887B70758A9CA3A7AAA8A3999194A2
:1059D0009995949B9EA2A8ABA9A69E938F94979508
:1059E000939CAFBBB2A4A2A7A6A29D999DAAB4B551
:1059F000B3B0ABABACA3927E6D666E8398ADC0C8FE
:105A0000B899837B6F5B4D4E5B6D7E91A8B2AAA166
:105A10009B84645961656B797B67534F545E6A6CF4
:105A2000625549444A586472848B88888D8B7C689F
:105A3000646C6C65604F38303A475A6F746F71739D
:105A40006C7294B4BAAE9C816B6B787C77757A86F5
:105A500094A2A9A49B9EA2978D97A3A4ACB19E8764
:105A600081755B505D696D72787B8187816C5E6743
:105A7000767E8A9791858788735D5A57473C392F80
:105A800024262A27334E606771766D615E5E5D5F06
:105A90006773776D5C4C3C33343841556262656C9A
:105AA0006867747B727178725A463F414E667E8C8D
:105AB0008C8B95A7B5B4AFB6C6CDCED7E5E7E0DA07
:105AC000D4CECAC7BBA9A0A3A9ADB5C3D5ECFAFA79
:105AD000F9FBF5ECECF1F3F5FCFAE9D2BDA78B7517
